{
	"CuratorContract.sol": {
		"Curator": {
			"abi": [
				{
					"inputs": [
						{
							"internalType": "string",
							"name": "_eventName",
							"type": "string"
						},
						{
							"internalType": "uint256",
							"name": "_stakingAmount",
							"type": "uint256"
						},
						{
							"internalType": "uint256",
							"name": "_eventDeadline",
							"type": "uint256"
						},
						{
							"internalType": "uint256",
							"name": "_resolutionTime",
							"type": "uint256"
						},
						{
							"internalType": "uint256",
							"name": "_maximumTicketSupply",
							"type": "uint256"
						},
						{
							"internalType": "string[]",
							"name": "_eventOutcomes",
							"type": "string[]"
						}
					],
					"name": "listNewEvent",
					"outputs": [],
					"stateMutability": "nonpayable",
					"type": "function"
				}
			],
			"devdoc": {
				"author": "Anthony (fps) https://github.com/0xfps.",
				"details": "Contract allowing users to list new event.",
				"kind": "dev",
				"methods": {
					"listNewEvent(string,uint256,uint256,uint256,uint256,string[])": {
						"details": "Lists a new event."
					}
				},
				"stateVariables": {
					"curators": {
						"details": "Curator address mappings."
					}
				},
				"title": "Curator Contract.",
				"version": 1
			},
			"evm": {
				"assembly": "    /* \"CuratorContract.sol\":204:876  contract Curator {... */\n  mstore(0x40, 0x80)\n  callvalue\n  dup1\n  iszero\n  tag_1\n  jumpi\n  0x00\n  dup1\n  revert\ntag_1:\n  pop\n  dataSize(sub_0)\n  dup1\n  dataOffset(sub_0)\n  0x00\n  codecopy\n  0x00\n  return\nstop\n\nsub_0: assembly {\n        /* \"CuratorContract.sol\":204:876  contract Curator {... */\n      mstore(0x40, 0x80)\n      callvalue\n      dup1\n      iszero\n      tag_1\n      jumpi\n      0x00\n      dup1\n      revert\n    tag_1:\n      pop\n      jumpi(tag_2, lt(calldatasize, 0x04))\n      shr(0xe0, calldataload(0x00))\n      dup1\n      0x1dd948d6\n      eq\n      tag_3\n      jumpi\n    tag_2:\n      0x00\n      dup1\n      revert\n        /* \"CuratorContract.sol\":597:873  function listNewEvent(... */\n    tag_3:\n      tag_4\n      0x04\n      dup1\n      calldatasize\n      sub\n      dup2\n      add\n      swap1\n      tag_5\n      swap2\n      swap1\n      tag_6\n      jump\t// in\n    tag_5:\n      tag_7\n      jump\t// in\n    tag_4:\n      stop\n    tag_7:\n        /* \"CuratorContract.sol\":504:508  true */\n      0x01\n        /* \"CuratorContract.sol\":480:508  curators[msg.sender] == true */\n      iszero\n      iszero\n        /* \"CuratorContract.sol\":480:488  curators */\n      0x00\n        /* \"CuratorContract.sol\":480:500  curators[msg.sender] */\n      dup1\n        /* \"CuratorContract.sol\":489:499  msg.sender */\n      caller\n        /* \"CuratorContract.sol\":480:500  curators[msg.sender] */\n      0xffffffffffffffffffffffffffffffffffffffff\n      and\n      0xffffffffffffffffffffffffffffffffffffffff\n      and\n      dup2\n      mstore\n      0x20\n      add\n      swap1\n      dup2\n      mstore\n      0x20\n      add\n      0x00\n      keccak256\n      0x00\n      swap1\n      sload\n      swap1\n      0x0100\n      exp\n      swap1\n      div\n      0xff\n      and\n        /* \"CuratorContract.sol\":480:508  curators[msg.sender] == true */\n      iszero\n      iszero\n      eq\n        /* \"CuratorContract.sol\":472:521  require(curators[msg.sender] == true, \"!Curator\") */\n      tag_9\n      jumpi\n      mload(0x40)\n      0x08c379a000000000000000000000000000000000000000000000000000000000\n      dup2\n      mstore\n      0x04\n      add\n      tag_10\n      swap1\n      tag_11\n      jump\t// in\n    tag_10:\n      mload(0x40)\n      dup1\n      swap2\n      sub\n      swap1\n      revert\n    tag_9:\n        /* \"CuratorContract.sol\":597:873  function listNewEvent(... */\n      pop\n      pop\n      pop\n      pop\n      pop\n      pop\n      jump\t// out\n        /* \"#utility.yul\":7:82   */\n    tag_13:\n        /* \"#utility.yul\":40:46   */\n      0x00\n        /* \"#utility.yul\":73:75   */\n      0x40\n        /* \"#utility.yul\":67:76   */\n      mload\n        /* \"#utility.yul\":57:76   */\n      swap1\n      pop\n        /* \"#utility.yul\":7:82   */\n      swap1\n      jump\t// out\n        /* \"#utility.yul\":88:205   */\n    tag_14:\n        /* \"#utility.yul\":197:198   */\n      0x00\n        /* \"#utility.yul\":194:195   */\n      dup1\n        /* \"#utility.yul\":187:199   */\n      revert\n        /* \"#utility.yul\":211:328   */\n    tag_15:\n        /* \"#utility.yul\":320:321   */\n      0x00\n        /* \"#utility.yul\":317:318   */\n      dup1\n        /* \"#utility.yul\":310:322   */\n      revert\n        /* \"#utility.yul\":334:451   */\n    tag_16:\n        /* \"#utility.yul\":443:444   */\n      0x00\n        /* \"#utility.yul\":440:441   */\n      dup1\n        /* \"#utility.yul\":433:445   */\n      revert\n        /* \"#utility.yul\":457:574   */\n    tag_17:\n        /* \"#utility.yul\":566:567   */\n      0x00\n        /* \"#utility.yul\":563:564   */\n      dup1\n        /* \"#utility.yul\":556:568   */\n      revert\n        /* \"#utility.yul\":580:682   */\n    tag_18:\n        /* \"#utility.yul\":621:627   */\n      0x00\n        /* \"#utility.yul\":672:674   */\n      0x1f\n        /* \"#utility.yul\":668:675   */\n      not\n        /* \"#utility.yul\":663:665   */\n      0x1f\n        /* \"#utility.yul\":656:661   */\n      dup4\n        /* \"#utility.yul\":652:666   */\n      add\n        /* \"#utility.yul\":648:676   */\n      and\n        /* \"#utility.yul\":638:676   */\n      swap1\n      pop\n        /* \"#utility.yul\":580:682   */\n      swap2\n      swap1\n      pop\n      jump\t// out\n        /* \"#utility.yul\":688:868   */\n    tag_19:\n        /* \"#utility.yul\":736:813   */\n      0x4e487b7100000000000000000000000000000000000000000000000000000000\n        /* \"#utility.yul\":733:734   */\n      0x00\n        /* \"#utility.yul\":726:814   */\n      mstore\n        /* \"#utility.yul\":833:837   */\n      0x41\n        /* \"#utility.yul\":830:831   */\n      0x04\n        /* \"#utility.yul\":823:838   */\n      mstore\n        /* \"#utility.yul\":857:861   */\n      0x24\n        /* \"#utility.yul\":854:855   */\n      0x00\n        /* \"#utility.yul\":847:862   */\n      revert\n        /* \"#utility.yul\":874:1155   */\n    tag_20:\n        /* \"#utility.yul\":957:984   */\n      tag_45\n        /* \"#utility.yul\":979:983   */\n      dup3\n        /* \"#utility.yul\":957:984   */\n      tag_18\n      jump\t// in\n    tag_45:\n        /* \"#utility.yul\":949:955   */\n      dup2\n        /* \"#utility.yul\":945:985   */\n      add\n        /* \"#utility.yul\":1087:1093   */\n      dup2\n        /* \"#utility.yul\":1075:1085   */\n      dup2\n        /* \"#utility.yul\":1072:1094   */\n      lt\n        /* \"#utility.yul\":1051:1069   */\n      0xffffffffffffffff\n        /* \"#utility.yul\":1039:1049   */\n      dup3\n        /* \"#utility.yul\":1036:1070   */\n      gt\n        /* \"#utility.yul\":1033:1095   */\n      or\n        /* \"#utility.yul\":1030:1118   */\n      iszero\n      tag_46\n      jumpi\n        /* \"#utility.yul\":1098:1116   */\n      tag_47\n      tag_19\n      jump\t// in\n    tag_47:\n        /* \"#utility.yul\":1030:1118   */\n    tag_46:\n        /* \"#utility.yul\":1138:1148   */\n      dup1\n        /* \"#utility.yul\":1134:1136   */\n      0x40\n        /* \"#utility.yul\":1127:1149   */\n      mstore\n        /* \"#utility.yul\":917:1155   */\n      pop\n        /* \"#utility.yul\":874:1155   */\n      pop\n      pop\n      jump\t// out\n        /* \"#utility.yul\":1161:1290   */\n    tag_21:\n        /* \"#utility.yul\":1195:1201   */\n      0x00\n        /* \"#utility.yul\":1222:1242   */\n      tag_49\n      tag_13\n      jump\t// in\n    tag_49:\n        /* \"#utility.yul\":1212:1242   */\n      swap1\n      pop\n        /* \"#utility.yul\":1251:1284   */\n      tag_50\n        /* \"#utility.yul\":1279:1283   */\n      dup3\n        /* \"#utility.yul\":1271:1277   */\n      dup3\n        /* \"#utility.yul\":1251:1284   */\n      tag_20\n      jump\t// in\n    tag_50:\n        /* \"#utility.yul\":1161:1290   */\n      swap2\n      swap1\n      pop\n      jump\t// out\n        /* \"#utility.yul\":1296:1604   */\n    tag_22:\n        /* \"#utility.yul\":1358:1362   */\n      0x00\n        /* \"#utility.yul\":1448:1466   */\n      0xffffffffffffffff\n        /* \"#utility.yul\":1440:1446   */\n      dup3\n        /* \"#utility.yul\":1437:1467   */\n      gt\n        /* \"#utility.yul\":1434:1490   */\n      iszero\n      tag_52\n      jumpi\n        /* \"#utility.yul\":1470:1488   */\n      tag_53\n      tag_19\n      jump\t// in\n    tag_53:\n        /* \"#utility.yul\":1434:1490   */\n    tag_52:\n        /* \"#utility.yul\":1508:1537   */\n      tag_54\n        /* \"#utility.yul\":1530:1536   */\n      dup3\n        /* \"#utility.yul\":1508:1537   */\n      tag_18\n      jump\t// in\n    tag_54:\n        /* \"#utility.yul\":1500:1537   */\n      swap1\n      pop\n        /* \"#utility.yul\":1592:1596   */\n      0x20\n        /* \"#utility.yul\":1586:1590   */\n      dup2\n        /* \"#utility.yul\":1582:1597   */\n      add\n        /* \"#utility.yul\":1574:1597   */\n      swap1\n      pop\n        /* \"#utility.yul\":1296:1604   */\n      swap2\n      swap1\n      pop\n      jump\t// out\n        /* \"#utility.yul\":1610:1756   */\n    tag_23:\n        /* \"#utility.yul\":1707:1713   */\n      dup3\n        /* \"#utility.yul\":1702:1705   */\n      dup2\n        /* \"#utility.yul\":1697:1700   */\n      dup4\n        /* \"#utility.yul\":1684:1714   */\n      calldatacopy\n        /* \"#utility.yul\":1748:1749   */\n      0x00\n        /* \"#utility.yul\":1739:1745   */\n      dup4\n        /* \"#utility.yul\":1734:1737   */\n      dup4\n        /* \"#utility.yul\":1730:1746   */\n      add\n        /* \"#utility.yul\":1723:1750   */\n      mstore\n        /* \"#utility.yul\":1610:1756   */\n      pop\n      pop\n      pop\n      jump\t// out\n        /* \"#utility.yul\":1762:2187   */\n    tag_24:\n        /* \"#utility.yul\":1840:1845   */\n      0x00\n        /* \"#utility.yul\":1865:1931   */\n      tag_57\n        /* \"#utility.yul\":1881:1930   */\n      tag_58\n        /* \"#utility.yul\":1923:1929   */\n      dup5\n        /* \"#utility.yul\":1881:1930   */\n      tag_22\n      jump\t// in\n    tag_58:\n        /* \"#utility.yul\":1865:1931   */\n      tag_21\n      jump\t// in\n    tag_57:\n        /* \"#utility.yul\":1856:1931   */\n      swap1\n      pop\n        /* \"#utility.yul\":1954:1960   */\n      dup3\n        /* \"#utility.yul\":1947:1952   */\n      dup2\n        /* \"#utility.yul\":1940:1961   */\n      mstore\n        /* \"#utility.yul\":1992:1996   */\n      0x20\n        /* \"#utility.yul\":1985:1990   */\n      dup2\n        /* \"#utility.yul\":1981:1997   */\n      add\n        /* \"#utility.yul\":2030:2033   */\n      dup5\n        /* \"#utility.yul\":2021:2027   */\n      dup5\n        /* \"#utility.yul\":2016:2019   */\n      dup5\n        /* \"#utility.yul\":2012:2028   */\n      add\n        /* \"#utility.yul\":2009:2034   */\n      gt\n        /* \"#utility.yul\":2006:2118   */\n      iszero\n      tag_59\n      jumpi\n        /* \"#utility.yul\":2037:2116   */\n      tag_60\n      tag_17\n      jump\t// in\n    tag_60:\n        /* \"#utility.yul\":2006:2118   */\n    tag_59:\n        /* \"#utility.yul\":2127:2181   */\n      tag_61\n        /* \"#utility.yul\":2174:2180   */\n      dup5\n        /* \"#utility.yul\":2169:2172   */\n      dup3\n        /* \"#utility.yul\":2164:2167   */\n      dup6\n        /* \"#utility.yul\":2127:2181   */\n      tag_23\n      jump\t// in\n    tag_61:\n        /* \"#utility.yul\":1846:2187   */\n      pop\n        /* \"#utility.yul\":1762:2187   */\n      swap4\n      swap3\n      pop\n      pop\n      pop\n      jump\t// out\n        /* \"#utility.yul\":2207:2547   */\n    tag_25:\n        /* \"#utility.yul\":2263:2268   */\n      0x00\n        /* \"#utility.yul\":2312:2315   */\n      dup3\n        /* \"#utility.yul\":2305:2309   */\n      0x1f\n        /* \"#utility.yul\":2297:2303   */\n      dup4\n        /* \"#utility.yul\":2293:2310   */\n      add\n        /* \"#utility.yul\":2289:2316   */\n      slt\n        /* \"#utility.yul\":2279:2401   */\n      tag_63\n      jumpi\n        /* \"#utility.yul\":2320:2399   */\n      tag_64\n      tag_16\n      jump\t// in\n    tag_64:\n        /* \"#utility.yul\":2279:2401   */\n    tag_63:\n        /* \"#utility.yul\":2437:2443   */\n      dup2\n        /* \"#utility.yul\":2424:2444   */\n      calldataload\n        /* \"#utility.yul\":2462:2541   */\n      tag_65\n        /* \"#utility.yul\":2537:2540   */\n      dup5\n        /* \"#utility.yul\":2529:2535   */\n      dup3\n        /* \"#utility.yul\":2522:2526   */\n      0x20\n        /* \"#utility.yul\":2514:2520   */\n      dup7\n        /* \"#utility.yul\":2510:2527   */\n      add\n        /* \"#utility.yul\":2462:2541   */\n      tag_24\n      jump\t// in\n    tag_65:\n        /* \"#utility.yul\":2453:2541   */\n      swap2\n      pop\n        /* \"#utility.yul\":2269:2547   */\n      pop\n        /* \"#utility.yul\":2207:2547   */\n      swap3\n      swap2\n      pop\n      pop\n      jump\t// out\n        /* \"#utility.yul\":2553:2630   */\n    tag_26:\n        /* \"#utility.yul\":2590:2597   */\n      0x00\n        /* \"#utility.yul\":2619:2624   */\n      dup2\n        /* \"#utility.yul\":2608:2624   */\n      swap1\n      pop\n        /* \"#utility.yul\":2553:2630   */\n      swap2\n      swap1\n      pop\n      jump\t// out\n        /* \"#utility.yul\":2636:2758   */\n    tag_27:\n        /* \"#utility.yul\":2709:2733   */\n      tag_68\n        /* \"#utility.yul\":2727:2732   */\n      dup2\n        /* \"#utility.yul\":2709:2733   */\n      tag_26\n      jump\t// in\n    tag_68:\n        /* \"#utility.yul\":2702:2707   */\n      dup2\n        /* \"#utility.yul\":2699:2734   */\n      eq\n        /* \"#utility.yul\":2689:2752   */\n      tag_69\n      jumpi\n        /* \"#utility.yul\":2748:2749   */\n      0x00\n        /* \"#utility.yul\":2745:2746   */\n      dup1\n        /* \"#utility.yul\":2738:2750   */\n      revert\n        /* \"#utility.yul\":2689:2752   */\n    tag_69:\n        /* \"#utility.yul\":2636:2758   */\n      pop\n      jump\t// out\n        /* \"#utility.yul\":2764:2903   */\n    tag_28:\n        /* \"#utility.yul\":2810:2815   */\n      0x00\n        /* \"#utility.yul\":2848:2854   */\n      dup2\n        /* \"#utility.yul\":2835:2855   */\n      calldataload\n        /* \"#utility.yul\":2826:2855   */\n      swap1\n      pop\n        /* \"#utility.yul\":2864:2897   */\n      tag_71\n        /* \"#utility.yul\":2891:2896   */\n      dup2\n        /* \"#utility.yul\":2864:2897   */\n      tag_27\n      jump\t// in\n    tag_71:\n        /* \"#utility.yul\":2764:2903   */\n      swap3\n      swap2\n      pop\n      pop\n      jump\t// out\n        /* \"#utility.yul\":2909:3230   */\n    tag_29:\n        /* \"#utility.yul\":2996:3000   */\n      0x00\n        /* \"#utility.yul\":3086:3104   */\n      0xffffffffffffffff\n        /* \"#utility.yul\":3078:3084   */\n      dup3\n        /* \"#utility.yul\":3075:3105   */\n      gt\n        /* \"#utility.yul\":3072:3128   */\n      iszero\n      tag_73\n      jumpi\n        /* \"#utility.yul\":3108:3126   */\n      tag_74\n      tag_19\n      jump\t// in\n    tag_74:\n        /* \"#utility.yul\":3072:3128   */\n    tag_73:\n        /* \"#utility.yul\":3158:3162   */\n      0x20\n        /* \"#utility.yul\":3150:3156   */\n      dup3\n        /* \"#utility.yul\":3146:3163   */\n      mul\n        /* \"#utility.yul\":3138:3163   */\n      swap1\n      pop\n        /* \"#utility.yul\":3218:3222   */\n      0x20\n        /* \"#utility.yul\":3212:3216   */\n      dup2\n        /* \"#utility.yul\":3208:3223   */\n      add\n        /* \"#utility.yul\":3200:3223   */\n      swap1\n      pop\n        /* \"#utility.yul\":2909:3230   */\n      swap2\n      swap1\n      pop\n      jump\t// out\n        /* \"#utility.yul\":3236:3353   */\n    tag_30:\n        /* \"#utility.yul\":3345:3346   */\n      0x00\n        /* \"#utility.yul\":3342:3343   */\n      dup1\n        /* \"#utility.yul\":3335:3347   */\n      revert\n        /* \"#utility.yul\":3375:4320   */\n    tag_31:\n        /* \"#utility.yul\":3481:3486   */\n      0x00\n        /* \"#utility.yul\":3506:3597   */\n      tag_77\n        /* \"#utility.yul\":3522:3596   */\n      tag_78\n        /* \"#utility.yul\":3589:3595   */\n      dup5\n        /* \"#utility.yul\":3522:3596   */\n      tag_29\n      jump\t// in\n    tag_78:\n        /* \"#utility.yul\":3506:3597   */\n      tag_21\n      jump\t// in\n    tag_77:\n        /* \"#utility.yul\":3497:3597   */\n      swap1\n      pop\n        /* \"#utility.yul\":3617:3622   */\n      dup1\n        /* \"#utility.yul\":3646:3652   */\n      dup4\n        /* \"#utility.yul\":3639:3644   */\n      dup3\n        /* \"#utility.yul\":3632:3653   */\n      mstore\n        /* \"#utility.yul\":3680:3684   */\n      0x20\n        /* \"#utility.yul\":3673:3678   */\n      dup3\n        /* \"#utility.yul\":3669:3685   */\n      add\n        /* \"#utility.yul\":3662:3685   */\n      swap1\n      pop\n        /* \"#utility.yul\":3733:3737   */\n      0x20\n        /* \"#utility.yul\":3725:3731   */\n      dup5\n        /* \"#utility.yul\":3721:3738   */\n      mul\n        /* \"#utility.yul\":3713:3719   */\n      dup4\n        /* \"#utility.yul\":3709:3739   */\n      add\n        /* \"#utility.yul\":3762:3765   */\n      dup6\n        /* \"#utility.yul\":3754:3760   */\n      dup2\n        /* \"#utility.yul\":3751:3766   */\n      gt\n        /* \"#utility.yul\":3748:3870   */\n      iszero\n      tag_79\n      jumpi\n        /* \"#utility.yul\":3781:3860   */\n      tag_80\n      tag_30\n      jump\t// in\n    tag_80:\n        /* \"#utility.yul\":3748:3870   */\n    tag_79:\n        /* \"#utility.yul\":3896:3902   */\n      dup4\n        /* \"#utility.yul\":3879:4314   */\n    tag_81:\n        /* \"#utility.yul\":3913:3919   */\n      dup2\n        /* \"#utility.yul\":3908:3911   */\n      dup2\n        /* \"#utility.yul\":3905:3920   */\n      lt\n        /* \"#utility.yul\":3879:4314   */\n      iszero\n      tag_83\n      jumpi\n        /* \"#utility.yul\":4002:4005   */\n      dup1\n        /* \"#utility.yul\":3989:4006   */\n      calldataload\n        /* \"#utility.yul\":4038:4056   */\n      0xffffffffffffffff\n        /* \"#utility.yul\":4025:4036   */\n      dup2\n        /* \"#utility.yul\":4022:4057   */\n      gt\n        /* \"#utility.yul\":4019:4141   */\n      iszero\n      tag_84\n      jumpi\n        /* \"#utility.yul\":4060:4139   */\n      tag_85\n      tag_16\n      jump\t// in\n    tag_85:\n        /* \"#utility.yul\":4019:4141   */\n    tag_84:\n        /* \"#utility.yul\":4184:4195   */\n      dup1\n        /* \"#utility.yul\":4176:4182   */\n      dup7\n        /* \"#utility.yul\":4172:4196   */\n      add\n        /* \"#utility.yul\":4222:4269   */\n      tag_86\n        /* \"#utility.yul\":4265:4268   */\n      dup10\n        /* \"#utility.yul\":4253:4263   */\n      dup3\n        /* \"#utility.yul\":4222:4269   */\n      tag_25\n      jump\t// in\n    tag_86:\n        /* \"#utility.yul\":4217:4220   */\n      dup6\n        /* \"#utility.yul\":4210:4270   */\n      mstore\n        /* \"#utility.yul\":4299:4303   */\n      0x20\n        /* \"#utility.yul\":4294:4297   */\n      dup6\n        /* \"#utility.yul\":4290:4304   */\n      add\n        /* \"#utility.yul\":4283:4304   */\n      swap5\n      pop\n        /* \"#utility.yul\":3955:4314   */\n      pop\n      pop\n        /* \"#utility.yul\":3939:3943   */\n      0x20\n        /* \"#utility.yul\":3934:3937   */\n      dup2\n        /* \"#utility.yul\":3930:3944   */\n      add\n        /* \"#utility.yul\":3923:3944   */\n      swap1\n      pop\n        /* \"#utility.yul\":3879:4314   */\n      jump(tag_81)\n    tag_83:\n        /* \"#utility.yul\":3883:3904   */\n      pop\n        /* \"#utility.yul\":3487:4320   */\n      pop\n      pop\n        /* \"#utility.yul\":3375:4320   */\n      swap4\n      swap3\n      pop\n      pop\n      pop\n      jump\t// out\n        /* \"#utility.yul\":4342:4732   */\n    tag_32:\n        /* \"#utility.yul\":4423:4428   */\n      0x00\n        /* \"#utility.yul\":4472:4475   */\n      dup3\n        /* \"#utility.yul\":4465:4469   */\n      0x1f\n        /* \"#utility.yul\":4457:4463   */\n      dup4\n        /* \"#utility.yul\":4453:4470   */\n      add\n        /* \"#utility.yul\":4449:4476   */\n      slt\n        /* \"#utility.yul\":4439:4561   */\n      tag_88\n      jumpi\n        /* \"#utility.yul\":4480:4559   */\n      tag_89\n      tag_16\n      jump\t// in\n    tag_89:\n        /* \"#utility.yul\":4439:4561   */\n    tag_88:\n        /* \"#utility.yul\":4597:4603   */\n      dup2\n        /* \"#utility.yul\":4584:4604   */\n      calldataload\n        /* \"#utility.yul\":4622:4726   */\n      tag_90\n        /* \"#utility.yul\":4722:4725   */\n      dup5\n        /* \"#utility.yul\":4714:4720   */\n      dup3\n        /* \"#utility.yul\":4707:4711   */\n      0x20\n        /* \"#utility.yul\":4699:4705   */\n      dup7\n        /* \"#utility.yul\":4695:4712   */\n      add\n        /* \"#utility.yul\":4622:4726   */\n      tag_31\n      jump\t// in\n    tag_90:\n        /* \"#utility.yul\":4613:4726   */\n      swap2\n      pop\n        /* \"#utility.yul\":4429:4732   */\n      pop\n        /* \"#utility.yul\":4342:4732   */\n      swap3\n      swap2\n      pop\n      pop\n      jump\t// out\n        /* \"#utility.yul\":4738:6205   */\n    tag_6:\n        /* \"#utility.yul\":4887:4893   */\n      0x00\n        /* \"#utility.yul\":4895:4901   */\n      dup1\n        /* \"#utility.yul\":4903:4909   */\n      0x00\n        /* \"#utility.yul\":4911:4917   */\n      dup1\n        /* \"#utility.yul\":4919:4925   */\n      0x00\n        /* \"#utility.yul\":4927:4933   */\n      dup1\n        /* \"#utility.yul\":4976:4979   */\n      0xc0\n        /* \"#utility.yul\":4964:4973   */\n      dup8\n        /* \"#utility.yul\":4955:4962   */\n      dup10\n        /* \"#utility.yul\":4951:4974   */\n      sub\n        /* \"#utility.yul\":4947:4980   */\n      slt\n        /* \"#utility.yul\":4944:5064   */\n      iszero\n      tag_92\n      jumpi\n        /* \"#utility.yul\":4983:5062   */\n      tag_93\n      tag_14\n      jump\t// in\n    tag_93:\n        /* \"#utility.yul\":4944:5064   */\n    tag_92:\n        /* \"#utility.yul\":5131:5132   */\n      0x00\n        /* \"#utility.yul\":5120:5129   */\n      dup8\n        /* \"#utility.yul\":5116:5133   */\n      add\n        /* \"#utility.yul\":5103:5134   */\n      calldataload\n        /* \"#utility.yul\":5161:5179   */\n      0xffffffffffffffff\n        /* \"#utility.yul\":5153:5159   */\n      dup2\n        /* \"#utility.yul\":5150:5180   */\n      gt\n        /* \"#utility.yul\":5147:5264   */\n      iszero\n      tag_94\n      jumpi\n        /* \"#utility.yul\":5183:5262   */\n      tag_95\n      tag_15\n      jump\t// in\n    tag_95:\n        /* \"#utility.yul\":5147:5264   */\n    tag_94:\n        /* \"#utility.yul\":5288:5351   */\n      tag_96\n        /* \"#utility.yul\":5343:5350   */\n      dup10\n        /* \"#utility.yul\":5334:5340   */\n      dup3\n        /* \"#utility.yul\":5323:5332   */\n      dup11\n        /* \"#utility.yul\":5319:5341   */\n      add\n        /* \"#utility.yul\":5288:5351   */\n      tag_25\n      jump\t// in\n    tag_96:\n        /* \"#utility.yul\":5278:5351   */\n      swap7\n      pop\n        /* \"#utility.yul\":5074:5361   */\n      pop\n        /* \"#utility.yul\":5400:5402   */\n      0x20\n        /* \"#utility.yul\":5426:5479   */\n      tag_97\n        /* \"#utility.yul\":5471:5478   */\n      dup10\n        /* \"#utility.yul\":5462:5468   */\n      dup3\n        /* \"#utility.yul\":5451:5460   */\n      dup11\n        /* \"#utility.yul\":5447:5469   */\n      add\n        /* \"#utility.yul\":5426:5479   */\n      tag_28\n      jump\t// in\n    tag_97:\n        /* \"#utility.yul\":5416:5479   */\n      swap6\n      pop\n        /* \"#utility.yul\":5371:5489   */\n      pop\n        /* \"#utility.yul\":5528:5530   */\n      0x40\n        /* \"#utility.yul\":5554:5607   */\n      tag_98\n        /* \"#utility.yul\":5599:5606   */\n      dup10\n        /* \"#utility.yul\":5590:5596   */\n      dup3\n        /* \"#utility.yul\":5579:5588   */\n      dup11\n        /* \"#utility.yul\":5575:5597   */\n      add\n        /* \"#utility.yul\":5554:5607   */\n      tag_28\n      jump\t// in\n    tag_98:\n        /* \"#utility.yul\":5544:5607   */\n      swap5\n      pop\n        /* \"#utility.yul\":5499:5617   */\n      pop\n        /* \"#utility.yul\":5656:5658   */\n      0x60\n        /* \"#utility.yul\":5682:5735   */\n      tag_99\n        /* \"#utility.yul\":5727:5734   */\n      dup10\n        /* \"#utility.yul\":5718:5724   */\n      dup3\n        /* \"#utility.yul\":5707:5716   */\n      dup11\n        /* \"#utility.yul\":5703:5725   */\n      add\n        /* \"#utility.yul\":5682:5735   */\n      tag_28\n      jump\t// in\n    tag_99:\n        /* \"#utility.yul\":5672:5735   */\n      swap4\n      pop\n        /* \"#utility.yul\":5627:5745   */\n      pop\n        /* \"#utility.yul\":5784:5787   */\n      0x80\n        /* \"#utility.yul\":5811:5864   */\n      tag_100\n        /* \"#utility.yul\":5856:5863   */\n      dup10\n        /* \"#utility.yul\":5847:5853   */\n      dup3\n        /* \"#utility.yul\":5836:5845   */\n      dup11\n        /* \"#utility.yul\":5832:5854   */\n      add\n        /* \"#utility.yul\":5811:5864   */\n      tag_28\n      jump\t// in\n    tag_100:\n        /* \"#utility.yul\":5801:5864   */\n      swap3\n      pop\n        /* \"#utility.yul\":5755:5874   */\n      pop\n        /* \"#utility.yul\":5941:5944   */\n      0xa0\n        /* \"#utility.yul\":5930:5939   */\n      dup8\n        /* \"#utility.yul\":5926:5945   */\n      add\n        /* \"#utility.yul\":5913:5946   */\n      calldataload\n        /* \"#utility.yul\":5973:5991   */\n      0xffffffffffffffff\n        /* \"#utility.yul\":5965:5971   */\n      dup2\n        /* \"#utility.yul\":5962:5992   */\n      gt\n        /* \"#utility.yul\":5959:6076   */\n      iszero\n      tag_101\n      jumpi\n        /* \"#utility.yul\":5995:6074   */\n      tag_102\n      tag_15\n      jump\t// in\n    tag_102:\n        /* \"#utility.yul\":5959:6076   */\n    tag_101:\n        /* \"#utility.yul\":6100:6188   */\n      tag_103\n        /* \"#utility.yul\":6180:6187   */\n      dup10\n        /* \"#utility.yul\":6171:6177   */\n      dup3\n        /* \"#utility.yul\":6160:6169   */\n      dup11\n        /* \"#utility.yul\":6156:6178   */\n      add\n        /* \"#utility.yul\":6100:6188   */\n      tag_32\n      jump\t// in\n    tag_103:\n        /* \"#utility.yul\":6090:6188   */\n      swap2\n      pop\n        /* \"#utility.yul\":5884:6198   */\n      pop\n        /* \"#utility.yul\":4738:6205   */\n      swap3\n      swap6\n      pop\n      swap3\n      swap6\n      pop\n      swap3\n      swap6\n      jump\t// out\n        /* \"#utility.yul\":6211:6380   */\n    tag_33:\n        /* \"#utility.yul\":6295:6306   */\n      0x00\n        /* \"#utility.yul\":6329:6335   */\n      dup3\n        /* \"#utility.yul\":6324:6327   */\n      dup3\n        /* \"#utility.yul\":6317:6336   */\n      mstore\n        /* \"#utility.yul\":6369:6373   */\n      0x20\n        /* \"#utility.yul\":6364:6367   */\n      dup3\n        /* \"#utility.yul\":6360:6374   */\n      add\n        /* \"#utility.yul\":6345:6374   */\n      swap1\n      pop\n        /* \"#utility.yul\":6211:6380   */\n      swap3\n      swap2\n      pop\n      pop\n      jump\t// out\n        /* \"#utility.yul\":6386:6544   */\n    tag_34:\n        /* \"#utility.yul\":6526:6536   */\n      0x2143757261746f72000000000000000000000000000000000000000000000000\n        /* \"#utility.yul\":6522:6523   */\n      0x00\n        /* \"#utility.yul\":6514:6520   */\n      dup3\n        /* \"#utility.yul\":6510:6524   */\n      add\n        /* \"#utility.yul\":6503:6537   */\n      mstore\n        /* \"#utility.yul\":6386:6544   */\n      pop\n      jump\t// out\n        /* \"#utility.yul\":6550:6915   */\n    tag_35:\n        /* \"#utility.yul\":6692:6695   */\n      0x00\n        /* \"#utility.yul\":6713:6779   */\n      tag_107\n        /* \"#utility.yul\":6777:6778   */\n      0x08\n        /* \"#utility.yul\":6772:6775   */\n      dup4\n        /* \"#utility.yul\":6713:6779   */\n      tag_33\n      jump\t// in\n    tag_107:\n        /* \"#utility.yul\":6706:6779   */\n      swap2\n      pop\n        /* \"#utility.yul\":6788:6881   */\n      tag_108\n        /* \"#utility.yul\":6877:6880   */\n      dup3\n        /* \"#utility.yul\":6788:6881   */\n      tag_34\n      jump\t// in\n    tag_108:\n        /* \"#utility.yul\":6906:6908   */\n      0x20\n        /* \"#utility.yul\":6901:6904   */\n      dup3\n        /* \"#utility.yul\":6897:6909   */\n      add\n        /* \"#utility.yul\":6890:6909   */\n      swap1\n      pop\n        /* \"#utility.yul\":6550:6915   */\n      swap2\n      swap1\n      pop\n      jump\t// out\n        /* \"#utility.yul\":6921:7340   */\n    tag_11:\n        /* \"#utility.yul\":7087:7091   */\n      0x00\n        /* \"#utility.yul\":7125:7127   */\n      0x20\n        /* \"#utility.yul\":7114:7123   */\n      dup3\n        /* \"#utility.yul\":7110:7128   */\n      add\n        /* \"#utility.yul\":7102:7128   */\n      swap1\n      pop\n        /* \"#utility.yul\":7174:7183   */\n      dup2\n        /* \"#utility.yul\":7168:7172   */\n      dup2\n        /* \"#utility.yul\":7164:7184   */\n      sub\n        /* \"#utility.yul\":7160:7161   */\n      0x00\n        /* \"#utility.yul\":7149:7158   */\n      dup4\n        /* \"#utility.yul\":7145:7162   */\n      add\n        /* \"#utility.yul\":7138:7185   */\n      mstore\n        /* \"#utility.yul\":7202:7333   */\n      tag_110\n        /* \"#utility.yul\":7328:7332   */\n      dup2\n        /* \"#utility.yul\":7202:7333   */\n      tag_35\n      jump\t// in\n    tag_110:\n        /* \"#utility.yul\":7194:7333   */\n      swap1\n      pop\n        /* \"#utility.yul\":6921:7340   */\n      swap2\n      swap1\n      pop\n      jump\t// out\n\n    auxdata: 0xa26469706673582212202e2dafb7104b72207daf7de50e4c8553ca1c9a4f890513ef9ddffcc761c78a6464736f6c63430008100033\n}\n",
				"bytecode": {
					"linkReferences": {},
					"object": "608060405234801561001057600080fd5b506104d4806100206000396000f3fe608060405234801561001057600080fd5b506004361061002b5760003560e01c80631dd948d614610030575b600080fd5b61004a6004803603810190610045919061035c565b61004c565b005b600115156000803373ffffffffffffffffffffffffffffffffffffffff1673ffffffffffffffffffffffffffffffffffffffff16815260200190815260200160002060009054906101000a900460ff161515146100de576040517f08c379a00000000000000000000000000000000000000000000000000000000081526004016100d59061047e565b60405180910390fd5b505050505050565b6000604051905090565b600080fd5b600080fd5b600080fd5b600080fd5b6000601f19601f8301169050919050565b7f4e487b7100000000000000000000000000000000000000000000000000000000600052604160045260246000fd5b61014d82610104565b810181811067ffffffffffffffff8211171561016c5761016b610115565b5b80604052505050565b600061017f6100e6565b905061018b8282610144565b919050565b600067ffffffffffffffff8211156101ab576101aa610115565b5b6101b482610104565b9050602081019050919050565b82818337600083830152505050565b60006101e36101de84610190565b610175565b9050828152602081018484840111156101ff576101fe6100ff565b5b61020a8482856101c1565b509392505050565b600082601f830112610227576102266100fa565b5b81356102378482602086016101d0565b91505092915050565b6000819050919050565b61025381610240565b811461025e57600080fd5b50565b6000813590506102708161024a565b92915050565b600067ffffffffffffffff82111561029157610290610115565b5b602082029050602081019050919050565b600080fd5b60006102ba6102b584610276565b610175565b905080838252602082019050602084028301858111156102dd576102dc6102a2565b5b835b8181101561032457803567ffffffffffffffff811115610302576103016100fa565b5b80860161030f8982610212565b855260208501945050506020810190506102df565b5050509392505050565b600082601f830112610343576103426100fa565b5b81356103538482602086016102a7565b91505092915050565b60008060008060008060c08789031215610379576103786100f0565b5b600087013567ffffffffffffffff811115610397576103966100f5565b5b6103a389828a01610212565b96505060206103b489828a01610261565b95505060406103c589828a01610261565b94505060606103d689828a01610261565b93505060806103e789828a01610261565b92505060a087013567ffffffffffffffff811115610408576104076100f5565b5b61041489828a0161032e565b9150509295509295509295565b600082825260208201905092915050565b7f2143757261746f72000000000000000000000000000000000000000000000000600082015250565b6000610468600883610421565b915061047382610432565b602082019050919050565b600060208201905081810360008301526104978161045b565b905091905056fea26469706673582212202e2dafb7104b72207daf7de50e4c8553ca1c9a4f890513ef9ddffcc761c78a6464736f6c63430008100033",
					"opcodes": "PUSH1 0x80 PUSH1 0x40 MSTORE CALLVALUE DUP1 ISZERO PUSH2 0x10 JUMPI PUSH1 0x0 DUP1 REVERT JUMPDEST POP PUSH2 0x4D4 DUP1 PUSH2 0x20 PUSH1 0x0 CODECOPY PUSH1 0x0 RETURN INVALID PUSH1 0x80 PUSH1 0x40 MSTORE CALLVALUE DUP1 ISZERO PUSH2 0x10 JUMPI PUSH1 0x0 DUP1 REVERT JUMPDEST POP PUSH1 0x4 CALLDATASIZE LT PUSH2 0x2B JUMPI PUSH1 0x0 CALLDATALOAD PUSH1 0xE0 SHR DUP1 PUSH4 0x1DD948D6 EQ PUSH2 0x30 JUMPI JUMPDEST PUSH1 0x0 DUP1 REVERT JUMPDEST PUSH2 0x4A PUSH1 0x4 DUP1 CALLDATASIZE SUB DUP2 ADD SWAP1 PUSH2 0x45 SWAP2 SWAP1 PUSH2 0x35C JUMP JUMPDEST PUSH2 0x4C JUMP JUMPDEST STOP JUMPDEST PUSH1 0x1 ISZERO ISZERO PUSH1 0x0 DUP1 CALLER PUSH20 0xFFFFFFFFFFFFFFFFFFFFFFFFFFFFFFFFFFFFFFFF AND PUSH20 0xFFFFFFFFFFFFFFFFFFFFFFFFFFFFFFFFFFFFFFFF AND DUP2 MSTORE PUSH1 0x20 ADD SWAP1 DUP2 MSTORE PUSH1 0x20 ADD PUSH1 0x0 KECCAK256 PUSH1 0x0 SWAP1 SLOAD SWAP1 PUSH2 0x100 EXP SWAP1 DIV PUSH1 0xFF AND ISZERO ISZERO EQ PUSH2 0xDE JUMPI PUSH1 0x40 MLOAD PUSH32 0x8C379A000000000000000000000000000000000000000000000000000000000 DUP2 MSTORE PUSH1 0x4 ADD PUSH2 0xD5 SWAP1 PUSH2 0x47E JUMP JUMPDEST PUSH1 0x40 MLOAD DUP1 SWAP2 SUB SWAP1 REVERT JUMPDEST POP POP POP POP POP POP JUMP JUMPDEST PUSH1 0x0 PUSH1 0x40 MLOAD SWAP1 POP SWAP1 JUMP JUMPDEST PUSH1 0x0 DUP1 REVERT JUMPDEST PUSH1 0x0 DUP1 REVERT JUMPDEST PUSH1 0x0 DUP1 REVERT JUMPDEST PUSH1 0x0 DUP1 REVERT JUMPDEST PUSH1 0x0 PUSH1 0x1F NOT PUSH1 0x1F DUP4 ADD AND SWAP1 POP SWAP2 SWAP1 POP JUMP JUMPDEST PUSH32 0x4E487B7100000000000000000000000000000000000000000000000000000000 PUSH1 0x0 MSTORE PUSH1 0x41 PUSH1 0x4 MSTORE PUSH1 0x24 PUSH1 0x0 REVERT JUMPDEST PUSH2 0x14D DUP3 PUSH2 0x104 JUMP JUMPDEST DUP2 ADD DUP2 DUP2 LT PUSH8 0xFFFFFFFFFFFFFFFF DUP3 GT OR ISZERO PUSH2 0x16C JUMPI PUSH2 0x16B PUSH2 0x115 JUMP JUMPDEST JUMPDEST DUP1 PUSH1 0x40 MSTORE POP POP POP JUMP JUMPDEST PUSH1 0x0 PUSH2 0x17F PUSH2 0xE6 JUMP JUMPDEST SWAP1 POP PUSH2 0x18B DUP3 DUP3 PUSH2 0x144 JUMP JUMPDEST SWAP2 SWAP1 POP JUMP JUMPDEST PUSH1 0x0 PUSH8 0xFFFFFFFFFFFFFFFF DUP3 GT ISZERO PUSH2 0x1AB JUMPI PUSH2 0x1AA PUSH2 0x115 JUMP JUMPDEST JUMPDEST PUSH2 0x1B4 DUP3 PUSH2 0x104 JUMP JUMPDEST SWAP1 POP PUSH1 0x20 DUP2 ADD SWAP1 POP SWAP2 SWAP1 POP JUMP JUMPDEST DUP3 DUP2 DUP4 CALLDATACOPY PUSH1 0x0 DUP4 DUP4 ADD MSTORE POP POP POP JUMP JUMPDEST PUSH1 0x0 PUSH2 0x1E3 PUSH2 0x1DE DUP5 PUSH2 0x190 JUMP JUMPDEST PUSH2 0x175 JUMP JUMPDEST SWAP1 POP DUP3 DUP2 MSTORE PUSH1 0x20 DUP2 ADD DUP5 DUP5 DUP5 ADD GT ISZERO PUSH2 0x1FF JUMPI PUSH2 0x1FE PUSH2 0xFF JUMP JUMPDEST JUMPDEST PUSH2 0x20A DUP5 DUP3 DUP6 PUSH2 0x1C1 JUMP JUMPDEST POP SWAP4 SWAP3 POP POP POP JUMP JUMPDEST PUSH1 0x0 DUP3 PUSH1 0x1F DUP4 ADD SLT PUSH2 0x227 JUMPI PUSH2 0x226 PUSH2 0xFA JUMP JUMPDEST JUMPDEST DUP2 CALLDATALOAD PUSH2 0x237 DUP5 DUP3 PUSH1 0x20 DUP7 ADD PUSH2 0x1D0 JUMP JUMPDEST SWAP2 POP POP SWAP3 SWAP2 POP POP JUMP JUMPDEST PUSH1 0x0 DUP2 SWAP1 POP SWAP2 SWAP1 POP JUMP JUMPDEST PUSH2 0x253 DUP2 PUSH2 0x240 JUMP JUMPDEST DUP2 EQ PUSH2 0x25E JUMPI PUSH1 0x0 DUP1 REVERT JUMPDEST POP JUMP JUMPDEST PUSH1 0x0 DUP2 CALLDATALOAD SWAP1 POP PUSH2 0x270 DUP2 PUSH2 0x24A JUMP JUMPDEST SWAP3 SWAP2 POP POP JUMP JUMPDEST PUSH1 0x0 PUSH8 0xFFFFFFFFFFFFFFFF DUP3 GT ISZERO PUSH2 0x291 JUMPI PUSH2 0x290 PUSH2 0x115 JUMP JUMPDEST JUMPDEST PUSH1 0x20 DUP3 MUL SWAP1 POP PUSH1 0x20 DUP2 ADD SWAP1 POP SWAP2 SWAP1 POP JUMP JUMPDEST PUSH1 0x0 DUP1 REVERT JUMPDEST PUSH1 0x0 PUSH2 0x2BA PUSH2 0x2B5 DUP5 PUSH2 0x276 JUMP JUMPDEST PUSH2 0x175 JUMP JUMPDEST SWAP1 POP DUP1 DUP4 DUP3 MSTORE PUSH1 0x20 DUP3 ADD SWAP1 POP PUSH1 0x20 DUP5 MUL DUP4 ADD DUP6 DUP2 GT ISZERO PUSH2 0x2DD JUMPI PUSH2 0x2DC PUSH2 0x2A2 JUMP JUMPDEST JUMPDEST DUP4 JUMPDEST DUP2 DUP2 LT ISZERO PUSH2 0x324 JUMPI DUP1 CALLDATALOAD PUSH8 0xFFFFFFFFFFFFFFFF DUP2 GT ISZERO PUSH2 0x302 JUMPI PUSH2 0x301 PUSH2 0xFA JUMP JUMPDEST JUMPDEST DUP1 DUP7 ADD PUSH2 0x30F DUP10 DUP3 PUSH2 0x212 JUMP JUMPDEST DUP6 MSTORE PUSH1 0x20 DUP6 ADD SWAP5 POP POP POP PUSH1 0x20 DUP2 ADD SWAP1 POP PUSH2 0x2DF JUMP JUMPDEST POP POP POP SWAP4 SWAP3 POP POP POP JUMP JUMPDEST PUSH1 0x0 DUP3 PUSH1 0x1F DUP4 ADD SLT PUSH2 0x343 JUMPI PUSH2 0x342 PUSH2 0xFA JUMP JUMPDEST JUMPDEST DUP2 CALLDATALOAD PUSH2 0x353 DUP5 DUP3 PUSH1 0x20 DUP7 ADD PUSH2 0x2A7 JUMP JUMPDEST SWAP2 POP POP SWAP3 SWAP2 POP POP JUMP JUMPDEST PUSH1 0x0 DUP1 PUSH1 0x0 DUP1 PUSH1 0x0 DUP1 PUSH1 0xC0 DUP8 DUP10 SUB SLT ISZERO PUSH2 0x379 JUMPI PUSH2 0x378 PUSH2 0xF0 JUMP JUMPDEST JUMPDEST PUSH1 0x0 DUP8 ADD CALLDATALOAD PUSH8 0xFFFFFFFFFFFFFFFF DUP2 GT ISZERO PUSH2 0x397 JUMPI PUSH2 0x396 PUSH2 0xF5 JUMP JUMPDEST JUMPDEST PUSH2 0x3A3 DUP10 DUP3 DUP11 ADD PUSH2 0x212 JUMP JUMPDEST SWAP7 POP POP PUSH1 0x20 PUSH2 0x3B4 DUP10 DUP3 DUP11 ADD PUSH2 0x261 JUMP JUMPDEST SWAP6 POP POP PUSH1 0x40 PUSH2 0x3C5 DUP10 DUP3 DUP11 ADD PUSH2 0x261 JUMP JUMPDEST SWAP5 POP POP PUSH1 0x60 PUSH2 0x3D6 DUP10 DUP3 DUP11 ADD PUSH2 0x261 JUMP JUMPDEST SWAP4 POP POP PUSH1 0x80 PUSH2 0x3E7 DUP10 DUP3 DUP11 ADD PUSH2 0x261 JUMP JUMPDEST SWAP3 POP POP PUSH1 0xA0 DUP8 ADD CALLDATALOAD PUSH8 0xFFFFFFFFFFFFFFFF DUP2 GT ISZERO PUSH2 0x408 JUMPI PUSH2 0x407 PUSH2 0xF5 JUMP JUMPDEST JUMPDEST PUSH2 0x414 DUP10 DUP3 DUP11 ADD PUSH2 0x32E JUMP JUMPDEST SWAP2 POP POP SWAP3 SWAP6 POP SWAP3 SWAP6 POP SWAP3 SWAP6 JUMP JUMPDEST PUSH1 0x0 DUP3 DUP3 MSTORE PUSH1 0x20 DUP3 ADD SWAP1 POP SWAP3 SWAP2 POP POP JUMP JUMPDEST PUSH32 0x2143757261746F72000000000000000000000000000000000000000000000000 PUSH1 0x0 DUP3 ADD MSTORE POP JUMP JUMPDEST PUSH1 0x0 PUSH2 0x468 PUSH1 0x8 DUP4 PUSH2 0x421 JUMP JUMPDEST SWAP2 POP PUSH2 0x473 DUP3 PUSH2 0x432 JUMP JUMPDEST PUSH1 0x20 DUP3 ADD SWAP1 POP SWAP2 SWAP1 POP JUMP JUMPDEST PUSH1 0x0 PUSH1 0x20 DUP3 ADD SWAP1 POP DUP2 DUP2 SUB PUSH1 0x0 DUP4 ADD MSTORE PUSH2 0x497 DUP2 PUSH2 0x45B JUMP JUMPDEST SWAP1 POP SWAP2 SWAP1 POP JUMP INVALID LOG2 PUSH5 0x6970667358 0x22 SLT KECCAK256 0x2E 0x2D 0xAF 0xB7 LT 0x4B PUSH19 0x207DAF7DE50E4C8553CA1C9A4F890513EF9DDF 0xFC 0xC7 PUSH2 0xC78A PUSH5 0x64736F6C63 NUMBER STOP ADDMOD LT STOP CALLER "
				},
				"gasEstimates": {
					"creation": {
						"codeDepositCost": "247200",
						"executionCost": "287",
						"totalCost": "247487"
					},
					"external": {
						"listNewEvent(string,uint256,uint256,uint256,uint256,string[])": "infinite"
					}
				},
				"methodIdentifiers": {
					"listNewEvent(string,uint256,uint256,uint256,uint256,string[])": "1dd948d6"
				}
			},
			"storageLayout": {
				"storage": [
					{
						"astId": 7,
						"contract": "CuratorContract.sol:Curator",
						"label": "curators",
						"offset": 0,
						"slot": "0",
						"type": "t_mapping(t_address,t_bool)"
					}
				],
				"types": {
					"t_address": {
						"encoding": "inplace",
						"label": "address",
						"numberOfBytes": "20"
					},
					"t_bool": {
						"encoding": "inplace",
						"label": "bool",
						"numberOfBytes": "1"
					},
					"t_mapping(t_address,t_bool)": {
						"encoding": "mapping",
						"key": "t_address",
						"label": "mapping(address => bool)",
						"numberOfBytes": "32",
						"value": "t_bool"
					}
				}
			},
			"userdoc": {
				"kind": "user",
				"methods": {},
				"version": 1
			}
		}
	}
}